{
  "_format": "hh-sol-artifact-1",
  "contractName": "PaymentSplitter",
  "sourceName": "contracts/PaymentSplitter.sol",
  "abi": [
    {
      "inputs": [
        {
          "internalType": "address",
          "name": "usdcAddress",
          "type": "address"
        },
        {
          "internalType": "address",
          "name": "voiceRegistryAddress",
          "type": "address"
        },
        {
          "internalType": "address",
          "name": "_platformWallet",
          "type": "address"
        }
      ],
      "stateMutability": "nonpayable",
      "type": "constructor"
    },
    {
      "anonymous": false,
      "inputs": [
        {
          "indexed": true,
          "internalType": "uint256",
          "name": "voiceId",
          "type": "uint256"
        },
        {
          "indexed": true,
          "internalType": "address",
          "name": "voiceOwner",
          "type": "address"
        },
        {
          "indexed": true,
          "internalType": "address",
          "name": "user",
          "type": "address"
        }
      ],
      "name": "PaymentSplit",
      "type": "event"
    },
    {
      "inputs": [],
      "name": "platformShare",
      "outputs": [
        {
          "internalType": "uint256",
          "name": "",
          "type": "uint256"
        }
      ],
      "stateMutability": "view",
      "type": "function"
    },
    {
      "inputs": [],
      "name": "platformWallet",
      "outputs": [
        {
          "internalType": "address",
          "name": "",
          "type": "address"
        }
      ],
      "stateMutability": "view",
      "type": "function"
    },
    {
      "inputs": [],
      "name": "usdcToken",
      "outputs": [
        {
          "internalType": "contract IERC20",
          "name": "",
          "type": "address"
        }
      ],
      "stateMutability": "view",
      "type": "function"
    },
    {
      "inputs": [
        {
          "internalType": "uint256",
          "name": "voiceId",
          "type": "uint256"
        }
      ],
      "name": "useVoice",
      "outputs": [],
      "stateMutability": "nonpayable",
      "type": "function"
    },
    {
      "inputs": [],
      "name": "voiceOwnerShare",
      "outputs": [
        {
          "internalType": "uint256",
          "name": "",
          "type": "uint256"
        }
      ],
      "stateMutability": "view",
      "type": "function"
    },
    {
      "inputs": [],
      "name": "voiceRegistry",
      "outputs": [
        {
          "internalType": "contract VoiceRegistry",
          "name": "",
          "type": "address"
        }
      ],
      "stateMutability": "view",
      "type": "function"
    },
    {
      "inputs": [],
      "name": "voiceUsageFee",
      "outputs": [
        {
          "internalType": "uint256",
          "name": "",
          "type": "uint256"
        }
      ],
      "stateMutability": "view",
      "type": "function"
    }
  ],
  "bytecode": "0x60806040526203d09060035562030d4060045561c35060055534801561002457600080fd5b5060405161070f38038061070f833981016040819052610043916100a1565b600080546001600160a01b039485166001600160a01b0319918216179091556001805493851693821693909317909255600280549190931691161790556100e4565b80516001600160a01b038116811461009c57600080fd5b919050565b6000806000606084860312156100b657600080fd5b6100bf84610085565b92506100cd60208501610085565b91506100db60408501610085565b90509250925092565b61061c806100f36000396000f3fe608060405234801561001057600080fd5b506004361061007d5760003560e01c8063674ca3321161005b578063674ca332146100da5780637fb5213e146100f157806398d15e13146100fa578063fa2af9da1461010357600080fd5b806311eac85514610082578063269d0ebc146100b25780634514ee32146100c5575b600080fd5b600054610095906001600160a01b031681565b6040516001600160a01b0390911681526020015b60405180910390f35b600154610095906001600160a01b031681565b6100d86100d3366004610465565b610116565b005b6100e360045481565b6040519081526020016100a9565b6100e360035481565b6100e360055481565b600254610095906001600160a01b031681565b60015460405163db87bc3360e01b8152600481018390526000916001600160a01b03169063db87bc3390602401600060405180830381865afa158015610160573d6000803e3d6000fd5b505050506040513d6000823e601f3d908101601f19168201604052610188919081019061053a565b50909150506001600160a01b0381166101db5760405162461bcd60e51b815260206004820152601060248201526f125b9d985b1a59081d9bda58d948125160821b60448201526064015b60405180910390fd5b6000546003546040516323b872dd60e01b815233600482015230602482015260448101919091526001600160a01b03909116906323b872dd906064016020604051808303816000875af1158015610236573d6000803e3d6000fd5b505050506040513d601f19601f8201168201806040525081019061025a91906105bd565b6102975760405162461bcd60e51b815260206004820152600e60248201526d14185e5b595b9d0819985a5b195960921b60448201526064016101d2565b6000546004805460405163a9059cbb60e01b81526001600160a01b0385811693820193909352602481019190915291169063a9059cbb906044016020604051808303816000875af11580156102f0573d6000803e3d6000fd5b505050506040513d601f19601f8201168201806040525081019061031491906105bd565b6103605760405162461bcd60e51b815260206004820152601a60248201527f566f696365206f776e6572207061796d656e74206661696c656400000000000060448201526064016101d2565b60005460025460055460405163a9059cbb60e01b81526001600160a01b039283166004820152602481019190915291169063a9059cbb906044016020604051808303816000875af11580156103b9573d6000803e3d6000fd5b505050506040513d601f19601f820116820180604052508101906103dd91906105bd565b6104295760405162461bcd60e51b815260206004820152601760248201527f506c6174666f726d207061796d656e74206661696c656400000000000000000060448201526064016101d2565b60405133906001600160a01b0383169084907f2e6ab6fbe00974ea8674425c347610ead2ca1c6f449134490ca39ad6f8cefe3590600090a45050565b60006020828403121561047757600080fd5b5035919050565b634e487b7160e01b600052604160045260246000fd5b600082601f8301126104a557600080fd5b815167ffffffffffffffff808211156104c0576104c061047e565b604051601f8301601f19908116603f011681019082821181831017156104e8576104e861047e565b8160405283815260209250868385880101111561050457600080fd5b600091505b838210156105265785820183015181830184015290820190610509565b600093810190920192909252949350505050565b60008060006060848603121561054f57600080fd5b83516001600160a01b038116811461056657600080fd5b602085015190935067ffffffffffffffff8082111561058457600080fd5b61059087838801610494565b935060408601519150808211156105a657600080fd5b506105b386828701610494565b9150509250925092565b6000602082840312156105cf57600080fd5b815180151581146105df57600080fd5b939250505056fea26469706673582212205d2cfd058ba957eaab391f4ac15ec75da10cd275c071a84591a8a8a578e1c10564736f6c63430008140033",
  "linkReferences": {},
  "deployedLinkReferences": {}
}