{
  "_format": "hh-sol-artifact-1",
  "contractName": "SubscriptionManager",
  "sourceName": "contracts/SubscriptionManager.sol",
  "abi": [
    {
      "inputs": [
        {
          "internalType": "address",
          "name": "usdcAddress",
          "type": "address"
        }
      ],
      "stateMutability": "nonpayable",
      "type": "constructor"
    },
    {
      "anonymous": false,
      "inputs": [
        {
          "indexed": true,
          "internalType": "address",
          "name": "user",
          "type": "address"
        },
        {
          "indexed": false,
          "internalType": "uint256",
          "name": "endTime",
          "type": "uint256"
        }
      ],
      "name": "Subscribed",
      "type": "event"
    },
    {
      "inputs": [
        {
          "internalType": "address",
          "name": "user",
          "type": "address"
        }
      ],
      "name": "isSubscribed",
      "outputs": [
        {
          "internalType": "bool",
          "name": "",
          "type": "bool"
        }
      ],
      "stateMutability": "view",
      "type": "function"
    },
    {
      "inputs": [],
      "name": "subscribe",
      "outputs": [],
      "stateMutability": "nonpayable",
      "type": "function"
    },
    {
      "inputs": [],
      "name": "subscriptionDuration",
      "outputs": [
        {
          "internalType": "uint32",
          "name": "",
          "type": "uint32"
        }
      ],
      "stateMutability": "view",
      "type": "function"
    },
    {
      "inputs": [
        {
          "internalType": "address",
          "name": "",
          "type": "address"
        }
      ],
      "name": "subscriptionEndTimes",
      "outputs": [
        {
          "internalType": "uint256",
          "name": "",
          "type": "uint256"
        }
      ],
      "stateMutability": "view",
      "type": "function"
    },
    {
      "inputs": [],
      "name": "subscriptionPrice",
      "outputs": [
        {
          "internalType": "uint256",
          "name": "",
          "type": "uint256"
        }
      ],
      "stateMutability": "view",
      "type": "function"
    },
    {
      "inputs": [],
      "name": "usdcToken",
      "outputs": [
        {
          "internalType": "contract IERC20",
          "name": "",
          "type": "address"
        }
      ],
      "stateMutability": "view",
      "type": "function"
    }
  ],
  "bytecode": "0x6080604052624c4b406001556002805463ffffffff191662278d0017905534801561002957600080fd5b506040516103f83803806103f88339810160408190526100489161006d565b600080546001600160a01b0319166001600160a01b039290921691909117905561009d565b60006020828403121561007f57600080fd5b81516001600160a01b038116811461009657600080fd5b9392505050565b61034c806100ac6000396000f3fe608060405234801561001057600080fd5b50600436106100625760003560e01c806311eac855146100675780637a94a633146100975780638f449a05146100bc578063b92ae87c146100c6578063bccf7ef814610101578063bdc8e54c1461012f575b600080fd5b60005461007a906001600160a01b031681565b6040516001600160a01b0390911681526020015b60405180910390f35b6002546100a79063ffffffff1681565b60405163ffffffff909116815260200161008e565b6100c4610138565b005b6100f16100d436600461029d565b6001600160a01b0316600090815260036020526040902054421090565b604051901515815260200161008e565b61012161010f36600461029d565b60036020526000908152604090205481565b60405190815260200161008e565b61012160015481565b6000546001546040516323b872dd60e01b815233600482015230602482015260448101919091526001600160a01b03909116906323b872dd906064016020604051808303816000875af1158015610193573d6000803e3d6000fd5b505050506040513d601f19601f820116820180604052508101906101b791906102cd565b6101f85760405162461bcd60e51b815260206004820152600e60248201526d14185e5b595b9d0819985a5b195960921b604482015260640160405180910390fd5b60025460009061020e9063ffffffff16426102ef565b3360009081526003602052604090205490915042101561024e576002543360009081526003602052604090205461024b9163ffffffff16906102ef565b90505b3360008181526003602052604090819020839055517f4b90d6788928d63c1821907a6a8b95f40d26562d8fe41b105f7489db9966dfcb906102929084815260200190565b60405180910390a250565b6000602082840312156102af57600080fd5b81356001600160a01b03811681146102c657600080fd5b9392505050565b6000602082840312156102df57600080fd5b815180151581146102c657600080fd5b8082018082111561031057634e487b7160e01b600052601160045260246000fd5b9291505056fea26469706673582212209a967fb2a7f1204d9441b0142d5368c5ae54e72cd0f30c6fb3bc91fadab9ac0f64736f6c63430008140033",
  "linkReferences": {},
  "deployedLinkReferences": {}
}