{
  "_format": "hh-sol-artifact-1",
  "contractName": "VoiceRegistry",
  "sourceName": "contracts/VoiceRegistry.sol",
  "abi": [
    {
      "inputs": [
        {
          "internalType": "address",
          "name": "initialOwner",
          "type": "address"
        }
      ],
      "stateMutability": "nonpayable",
      "type": "constructor"
    },
    {
      "inputs": [
        {
          "internalType": "address",
          "name": "owner",
          "type": "address"
        }
      ],
      "name": "OwnableInvalidOwner",
      "type": "error"
    },
    {
      "inputs": [
        {
          "internalType": "address",
          "name": "account",
          "type": "address"
        }
      ],
      "name": "OwnableUnauthorizedAccount",
      "type": "error"
    },
    {
      "anonymous": false,
      "inputs": [
        {
          "indexed": true,
          "internalType": "address",
          "name": "previousOwner",
          "type": "address"
        },
        {
          "indexed": true,
          "internalType": "address",
          "name": "newOwner",
          "type": "address"
        }
      ],
      "name": "OwnershipTransferred",
      "type": "event"
    },
    {
      "anonymous": false,
      "inputs": [
        {
          "indexed": true,
          "internalType": "uint256",
          "name": "voiceId",
          "type": "uint256"
        },
        {
          "indexed": true,
          "internalType": "address",
          "name": "owner",
          "type": "address"
        },
        {
          "indexed": false,
          "internalType": "string",
          "name": "ipfsHash",
          "type": "string"
        },
        {
          "indexed": false,
          "internalType": "string",
          "name": "modelId",
          "type": "string"
        }
      ],
      "name": "VoiceRegistered",
      "type": "event"
    },
    {
      "inputs": [
        {
          "internalType": "uint256",
          "name": "id",
          "type": "uint256"
        }
      ],
      "name": "getVoice",
      "outputs": [
        {
          "internalType": "address",
          "name": "owner",
          "type": "address"
        },
        {
          "internalType": "string",
          "name": "ipfsHash",
          "type": "string"
        },
        {
          "internalType": "string",
          "name": "modelId",
          "type": "string"
        }
      ],
      "stateMutability": "view",
      "type": "function"
    },
    {
      "inputs": [],
      "name": "owner",
      "outputs": [
        {
          "internalType": "address",
          "name": "",
          "type": "address"
        }
      ],
      "stateMutability": "view",
      "type": "function"
    },
    {
      "inputs": [
        {
          "internalType": "string",
          "name": "ipfsHash",
          "type": "string"
        },
        {
          "internalType": "string",
          "name": "modelId",
          "type": "string"
        }
      ],
      "name": "registerVoice",
      "outputs": [],
      "stateMutability": "nonpayable",
      "type": "function"
    },
    {
      "inputs": [],
      "name": "renounceOwnership",
      "outputs": [],
      "stateMutability": "nonpayable",
      "type": "function"
    },
    {
      "inputs": [
        {
          "internalType": "address",
          "name": "newOwner",
          "type": "address"
        }
      ],
      "name": "transferOwnership",
      "outputs": [],
      "stateMutability": "nonpayable",
      "type": "function"
    },
    {
      "inputs": [],
      "name": "voiceCount",
      "outputs": [
        {
          "internalType": "uint256",
          "name": "",
          "type": "uint256"
        }
      ],
      "stateMutability": "view",
      "type": "function"
    },
    {
      "inputs": [
        {
          "internalType": "uint256",
          "name": "",
          "type": "uint256"
        }
      ],
      "name": "voices",
      "outputs": [
        {
          "internalType": "address",
          "name": "owner",
          "type": "address"
        },
        {
          "internalType": "string",
          "name": "ipfsHash",
          "type": "string"
        },
        {
          "internalType": "string",
          "name": "modelId",
          "type": "string"
        },
        {
          "internalType": "bool",
          "name": "exists",
          "type": "bool"
        }
      ],
      "stateMutability": "view",
      "type": "function"
    }
  ],
  "bytecode": "0x608060405234801561001057600080fd5b50604051610ad3380380610ad383398101604081905261002f916100be565b806001600160a01b03811661005e57604051631e4fbdf760e01b81526000600482015260240160405180910390fd5b6100678161006e565b50506100ee565b600080546001600160a01b038381166001600160a01b0319831681178455604051919092169283917f8be0079c531659141344cd1fd0a4f28419497f9722a3daafe3b4186f6b6457e09190a35050565b6000602082840312156100d057600080fd5b81516001600160a01b03811681146100e757600080fd5b9392505050565b6109d6806100fd6000396000f3fe608060405234801561001057600080fd5b506004361061007d5760003560e01c8063a5e5182a1161005b578063a5e5182a146100bf578063c415d529146100d6578063db87bc33146100f9578063f2fde38b1461011b57600080fd5b8063715018a6146100825780637b468fb41461008c5780638da5cb5b1461009f575b600080fd5b61008a61012e565b005b61008a61009a366004610685565b610142565b6000546040516001600160a01b0390911681526020015b60405180910390f35b6100c860025481565b6040519081526020016100b6565b6100e96100e43660046106e9565b610230565b6040516100b69493929190610748565b61010c6101073660046106e9565b610377565b6040516100b693929190610792565b61008a6101293660046107d2565b610527565b610136610565565b6101406000610592565b565b6002805490600061015283610802565b909155505060408051608081018252338152602080820185815282840185905260016060840181905260025460009081529281905293909120825181546001600160a01b0319166001600160a01b03909116178155905191929091908201906101bb90826108b2565b50604082015160028201906101d090826108b2565b50606091909101516003909101805460ff19169115159190911790556002546040513391907f0a3f5053253a922eaa0933ea3edcdff7ced9c8e79abfd4ea3d05939f6be01a8e906102249086908690610972565b60405180910390a35050565b6001602081905260009182526040909120805491810180546001600160a01b039093169261025d90610829565b80601f016020809104026020016040519081016040528092919081815260200182805461028990610829565b80156102d65780601f106102ab576101008083540402835291602001916102d6565b820191906000526020600020905b8154815290600101906020018083116102b957829003601f168201915b5050505050908060020180546102eb90610829565b80601f016020809104026020016040519081016040528092919081815260200182805461031790610829565b80156103645780601f1061033957610100808354040283529160200191610364565b820191906000526020600020905b81548152906001019060200180831161034757829003601f168201915b5050506003909301549192505060ff1684565b600081815260016020526040812060030154606090819060ff166103d95760405162461bcd60e51b8152602060048201526014602482015273159bda58d948191bd95cc81b9bdd08195e1a5cdd60621b60448201526064015b60405180910390fd5b6000848152600160208190526040909120805491810180546001600160a01b0390931692909160020190829061040e90610829565b80601f016020809104026020016040519081016040528092919081815260200182805461043a90610829565b80156104875780601f1061045c57610100808354040283529160200191610487565b820191906000526020600020905b81548152906001019060200180831161046a57829003601f168201915b5050505050915080805461049a90610829565b80601f01602080910402602001604051908101604052809291908181526020018280546104c690610829565b80156105135780601f106104e857610100808354040283529160200191610513565b820191906000526020600020905b8154815290600101906020018083116104f657829003601f168201915b505050505090509250925092509193909250565b61052f610565565b6001600160a01b03811661055957604051631e4fbdf760e01b8152600060048201526024016103d0565b61056281610592565b50565b6000546001600160a01b031633146101405760405163118cdaa760e01b81523360048201526024016103d0565b600080546001600160a01b038381166001600160a01b0319831681178455604051919092169283917f8be0079c531659141344cd1fd0a4f28419497f9722a3daafe3b4186f6b6457e09190a35050565b634e487b7160e01b600052604160045260246000fd5b600082601f83011261060957600080fd5b813567ffffffffffffffff80821115610624576106246105e2565b604051601f8301601f19908116603f0116810190828211818310171561064c5761064c6105e2565b8160405283815286602085880101111561066557600080fd5b836020870160208301376000602085830101528094505050505092915050565b6000806040838503121561069857600080fd5b823567ffffffffffffffff808211156106b057600080fd5b6106bc868387016105f8565b935060208501359150808211156106d257600080fd5b506106df858286016105f8565b9150509250929050565b6000602082840312156106fb57600080fd5b5035919050565b6000815180845260005b818110156107285760208185018101518683018201520161070c565b506000602082860101526020601f19601f83011685010191505092915050565b6001600160a01b038516815260806020820181905260009061076c90830186610702565b828103604084015261077e8186610702565b915050821515606083015295945050505050565b6001600160a01b03841681526060602082018190526000906107b690830185610702565b82810360408401526107c88185610702565b9695505050505050565b6000602082840312156107e457600080fd5b81356001600160a01b03811681146107fb57600080fd5b9392505050565b60006001820161082257634e487b7160e01b600052601160045260246000fd5b5060010190565b600181811c9082168061083d57607f821691505b60208210810361085d57634e487b7160e01b600052602260045260246000fd5b50919050565b601f8211156108ad57600081815260208120601f850160051c8101602086101561088a5750805b601f850160051c820191505b818110156108a957828155600101610896565b5050505b505050565b815167ffffffffffffffff8111156108cc576108cc6105e2565b6108e0816108da8454610829565b84610863565b602080601f83116001811461091557600084156108fd5750858301515b600019600386901b1c1916600185901b1785556108a9565b600085815260208120601f198616915b8281101561094457888601518255948401946001909101908401610925565b50858210156109625787850151600019600388901b60f8161c191681555b5050505050600190811b01905550565b6040815260006109856040830185610702565b82810360208401526109978185610702565b9594505050505056fea26469706673582212206d91e4e424311c1a1e1642e4134546e7eb612c35ca3ddb7c9130687b21b5c1ed64736f6c63430008140033",
  "linkReferences": {},
  "deployedLinkReferences": {}
}